:020000040800F2
:100000000000022071190008FD180008FF18000800
:100010000119000803190008051900080000000074
:1000200000000000000000000000000007190008A8
:1000300009190008000000000B1900080D1900083C
:10004000C1190008C1190008C1190008C119000828
:10005000C1190008C1190008C1190008C119000818
:10006000C1190008C1190008C1190008C119000808
:10007000C1190008C1190008C1190008C1190008F8
:10008000C1190008C1190008C1190008C1190008E8
:10009000C1190008C1190008C1190008C1190008D8
:1000A000C1190008C1190008C1190008C1190008C8
:1000B000C1190008C1190008C1190008C1190008B8
:1000C000C1190008C1190008C1190008C1190008A8
:1000D000C1190008C1190008C1190008C119000898
:1000E000C1190008C1190008C1190008C119000888
:1000F000C1190008C1190008C1190008C119000878
:10010000C1190008C1190008C1190008C119000867
:10011000C1190008C1190008C1190008C119000857
:10012000C1190008C1190008C1190008C119000847
:10013000C1190008C1190008C1190008C119000837
:10014000C1190008C1190008C1190008C119000827
:10015000C1190008C1190008C1190008C119000817
:10016000C1190008C1190008C1190008C119000807
:10017000C1190008C1190008C119000800000000D9
:08018000C1190008C1190008B3
:1001880010B5054C237833B9044B13B10448AFF3C9
:1001980000800123237010BD4C08002000000000DF
:1001A8003C2B000808B5034B1BB103490348AFF3C8
:1001B800008008BD00000000500800203C2B00080B
:1001C80053B94AB9002908BF00281CBF4FF0FF31B6
:1001D8004FF0FF3000F074B9ADF1080C6DE904CEB2
:1001E80000F006F8DDF804E0DDE9022304B070470A
:1001F8002DE9F047089D04468E46002B4DD18A42D2
:10020800944669D9B2FA82F252B101FA02F3C2F104
:10021800200120FA01F10CFA02FC41EA030E944095
:100228004FEA1C48210CBEFBF8F61FFA8CF708FBB6
:1002380016E341EA034306FB07F199420AD91CEB8E
:10024800030306F1FF3080F01F81994240F21C81C0
:10025800023E63445B1AA4B2B3FBF8F008FB103308
:1002680044EA034400FB07F7A7420AD91CEB04043D
:1002780000F1FF3380F00A81A74240F2078164440D
:10028800023840EA0640E41B00261DB1D440002392
:10029800C5E900433146BDE8F0878B4209D9002DF6
:1002A80000F0EF800026C5E9000130463146BDE880
:1002B800F087B3FA83F6002E4AD18B4202D38242EA
:1002C80000F2F980841A61EB030301209E46002D99
:1002D800E0D0C5E9004EDDE702B9FFDEB2FA82F2EE
:1002E800002A40F09280A1EB0C014FEA1C471FFA4C
:1002F8008CFE0126200CB1FBF7F307FB131140EA33
:1003080001410EFB03F0884208D91CEB010103F1FF
:10031800FF3802D2884200F2CB804346091AA4B2C1
:10032800B1FBF7F007FB101144EA01440EFB00FE95
:10033800A64508D91CEB040400F1FF3102D2A645FA
:1003480000F2BB800846A4EB0E0440EA03409CE799
:10035800C6F12007B34022FA07FC4CEA030C20FA46
:1003680007F401FA06F31C43F9404FEA1C4900FA66
:1003780006F3B1FBF9F8200C1FFA8CFE09FB1811E3
:1003880040EA014108FB0EF0884202FA06F20BD956
:100398001CEB010108F1FF3A80F08880884240F2A6
:1003A8008580A8F102086144091AA4B2B1FBF9F0EA
:1003B80009FB101144EA014100FB0EFE8E4508D9E5
:1003C8001CEB010100F1FF346CD28E456AD902386A
:1003D800614440EA0840A0FB0294A1EB0E01A1424F
:1003E800C846A64656D353D05DB1B3EB080261EBBD
:1003F8000E0101FA07F722FA06F3F1401F43C5E997
:10040800007100263146BDE8F087C2F12003D840CC
:100418000CFA02FC21FA03F3914001434FEA1C470E
:100428001FFA8CFEB3FBF7F007FB10360B0C43EA00
:10043800064300FB0EF69E4204FA02F408D91CEBB0
:10044800030300F1FF382FD29E422DD902386344AE
:100458009B1B89B2B3FBF7F607FB163341EA03414E
:1004680006FB0EF38B4208D91CEB010106F1FF389D
:1004780016D28B4214D9023E6144C91A46EA004694
:1004880038E72E46284605E70646E3E61846F8E626
:100498004B45A9D2B9EB020864EB0C0E0138A3E76F
:1004A8004646EAE7204694E74046D1E7D0467BE750
:1004B800023B614432E7304609E76444023842E7C8
:1004C800704700BF10B504460E4B18784FF47A7386
:1004D800B3FBF0F30C4A1068B0FBF3F000F020FA1D
:1004E80068B90F2C01D901200AE0002221464FF0FB
:1004F800FF3000F0DDF9054B1C60002000E0012012
:1005080010BD00BF000000200800002004000020EB
:1005180008B50B4B1A6842F400721A601A6842F464
:1005280080621A601A6842F480721A60032000F030
:10053800ADF90F20FFF7C6FF01F052F9002008BD02
:10054800003C0240034A1168034B1B780B441360BC
:10055800704700BF6808002000000020014B1868A1
:10056800704700BF680800204A4B5A6822F440329E
:100578005A605A6841680A435A600268536823F40B
:100588008073536002685368016943EA012353602A
:100598000268536823F040735360026853688168A7
:1005A8000B4353600268936823F400639360026806
:1005B8009368C1680B439360826A374B9A4257D05D
:1005C8000268936823F07063936002689368816A95
:1005D8000B4393600268936823F04053936002686A
:1005E8009368C16A0B4393600268936823F002031F
:1005F800936002689368017E43EA4103936090F830
:100608002030002B3FD00268536843F400635360E6
:100618000268536823F46043536001684B68426A78
:10062800013A43EA42334B600268D36A23F4700309
:10063800D3620168CB6AC269013A43EA0253CB62CA
:100648000268936823F4007393600268936890F8D3
:10065800301043EA412393600268936823F480636F
:10066800936002689368416943EA81239360704705
:100678000268936823F0706393600268936823F0BC
:1006880040539360B0E70268536823F400635360F3
:10069800CAE700BF002301400100000F38B310B5BE
:1006A8000446036C43B1236C13F0100F0BD00120E8
:1006B800002384F83C3010BD01F0AEF800236364D9
:1006C80084F83C30EFE7236C23F4885323F00203CB
:1006D80043F0020323642046FFF746FF00206064CE
:1006E800236C23F0030343F001032364E0E70120B4
:1006F8007047000030B482B00023019390F83C307A
:10070800012B00F0BB80012380F83C300B68092BDB
:1007180041D90468E2689BB203EB43031E3B4FF0E8
:10072800070C0CFA03F322EA0303E3600468E268A7
:100738000B8803EB43031E3B8D6805FA03F3134351
:10074800E3604B68062B3DD80468626B03EB8303B8
:10075800053B4FF01F0C0CFA03F322EA0303636313
:100768000468626B4B6803EB8303053BB1F800C078
:100778000CFA03F3134363630268414B9A4251D066
:1007880002683F4B9A4256D0002380F83C30184606
:1007980002B030BC7047046822699BB203EB430384
:1007A8004FF0070C0CFA03F322EA030323610468F1
:1007B80022690B8803EB43038D6805FA03F313439F
:1007C8002361BEE70C2B16D805682A6B03EB83035D
:1007D800233B1F2404FA03F322EA03032B6305686F
:1007E8002A6B4B6803EB8303233B0C8804FA03F35F
:1007F80013432B63C0E70568EA6A03EB8303413BB5
:100808001F2404FA03F322EA0303EB620568EA6A89
:100818004B6803EB8303413B0C8804FA03F313434F
:10082800EB62A9E70B68122BAAD1164A536843F466
:1008380080035360A4E70B68103B012BA4D8114A2E
:10084800536843F4000353600B68102B9CD10E4B84
:100858001B6802F1467202F52E3202F28332A2FBC5
:1008680003239B0C03EB83035B00019302E0019BD2
:10087800013B0193019B002BF9D185E7022087E713
:10088800002001400023014008000020074AD368E7
:1008980023F4E0631B041B0C000200F4E060034334
:1008A80043F0BF6343F40033D360704700ED00E0CA
:1008B80000B5194BDB68C3F30223C3F1070CBCF185
:1008C800040F28BF4FF0040C03F1040EBEF1060F0D
:1008D80018D9033B4FF0FF3E0EFA0CFC21EA0C013D
:1008E80099400EFA03F322EA0303194300280BDBAD
:1008F8000901C9B200F1604000F5614080F80013B9
:100908005DF804FB0023E5E700F00F000901C9B218
:10091800024B1954F4E700BF00ED00E014ED00E0CD
:100928000138B0F1807F0BD24FF0E0235861054ABF
:10093800F02182F823100020986107221A6170477D
:100948000120704700ED00E000230F2B00F2E48047
:1009580070B582B060E085685E000324B44025EA83
:100968000405CC68B4402C438460456825EA020538
:100978004C68C4F300129A402A4342605AE0DC08EB
:10098800083450F8246003F0070295000F22AA40AB
:1009980026EA020E0A69AA4042EA0E0240F824201A
:1009A8005CE0072200E0002202FA0EF22A43023439
:1009B8005A4D45F824205A4A94686FEA0C0224EAF2
:1009C8000C054E6816F4801F01D04CEA0405544CFF
:1009D800A560E46802EA04054E6816F4001F01D019
:1009E8004CEA04054E4CE560646802EA04054E686A
:1009F80016F4003F01D04CEA0405494C65602468B0
:100A080022404D6815F4803F01D04CEA0402444C62
:100A1800226001330F2B7DD801229A400C6804EA2A
:100A2800020C32EA0404F4D14C6804F00304013CDB
:100A3800012C90D94A6802F00302032A09D0C4683D
:100A48005D000322AA4024EA02048A68AA402243DD
:100A5800C2604A6802F00302022A90D004684FEA92
:100A6800430E032202FA0EF224EA02044A6802F054
:100A7800030202FA0EF2224302604A6812F4403F6F
:100A8800C7D000220192274A546C44F4804454642D
:100A9800526C02F480420192019A9C08A51C1F4ADC
:100AA80052F8255003F003024FEA820E0F2202FA91
:100AB8000EF225EA02051C4A90423FF474AF02F593
:100AC800806290421AD002F58062904218D002F5F6
:100AD8008062904216D002F58062904214D002F5EE
:100AE8008062904212D002F58062904210D002F5E6
:100AF800806290423FF455AF082255E7012253E740
:100B0800022251E703224FE704224DE705224BE773
:100B1800062249E702B070BD704700BF00380140A7
:100B2800003C01400038024000000240002800F06C
:100B3800E08170B582B00446036813F0010F3BD022
:100B48009F4B9B6803F00C03042B2CD09C4B9B6899
:100B580003F00C03082B21D06368B3F5803F4FD016
:100B6800B3F5A02F52D0964B1A6822F480321A603F
:100B78001A6822F480221A606368002B50D0FFF7AD
:100B8800EDFC05468E4B1B6813F4003F14D1FFF7AC
:100B9800E5FC401B6428F5D90320B1E1884B5B686C
:100BA80013F4800FD8D0864B1B6813F4003F03D092
:100BB8006368002B00F09F81236813F0020F54D064
:100BC8007F4B9B6813F00C0F3ED07D4B9B6803F066
:100BD8000C03082B33D0E368002B68D0794B012233
:100BE8001A60FFF7BBFC0546754B1B6813F0020F34
:100BF80054D1FFF7B3FC401B0228F5D903207FE14D
:100C08006F4A136843F480331360B5E76C4B1A6876
:100C180042F480221A601A6842F480321A60ABE704
:100C2800FFF79CFC0546664B1B6813F4003FC3D0D6
:100C3800FFF794FC401B6428F5D9032060E1604B62
:100C48005B6813F4800FC6D15D4B1B6813F0020F6D
:100C580003D0E368012B40F05081594A136823F010
:100C6800F803216943EAC1031360236813F0080FEE
:100C780042D063696BB3534B0122C3F8802EFFF750
:100C88006DFC05464E4B5B6F13F0020F34D1FFF736
:100C980065FC401B0228F5D9032031E1484A136856
:100CA80023F0F803216943EAC1031360DDE7454BEC
:100CB80000221A60FFF752FC0546414B1B6813F0EF
:100CC800020FD2D0FFF74AFC401B0228F5D90320B7
:100CD80016E13C4B0022C3F8802EFFF73FFC054687
:100CE800374B5B6F13F0020F06D0FFF737FC401B42
:100CF8000228F5D9032003E1236813F0040F77D005
:100D08002F4B1B6C13F0805F33D1002301932C4BC6
:100D18001A6C42F080521A641B6C03F080530193E2
:100D2800019B0125284B1B6813F4807F23D0A368FF
:100D3800012B34D0052B38D0214B1A6F22F0010239
:100D48001A671A6F22F004021A67A368002B3DD0B5
:100D5800FFF704FC06461A4B1B6F13F0020F46D12F
:100D6800FFF7FCFB801B41F288339842F3D903203C
:100D7800C6E00025D6E7144A136843F4807313606D
:100D8800FFF7ECFB0646104B1B6813F4807FCED1AF
:100D9800FFF7E4FB801B0228F5D90320B0E0084ADE
:100DA800136F43F001031367CFE7054B1A6F42F047
:100DB80004021A671A6F42F001021A67C5E700BFFA
:100DC800003802400000474200700040FFF7C6FBB1
:100DD8000646524B1B6F13F0020F08D0FFF7BEFBFD
:100DE800801B41F288339842F3D9032088E0EDB99B
:100DF800A369002B00F08380484A926802F00C0235
:100E0800082A51D0022B17D0454B00221A66FFF74B
:100E1800A5FB0446414B1B6813F0007F42D0FFF747
:100E28009DFB001B0228F5D9032069E03B4A136C9F
:100E380023F080531364DBE7394B00221A66FFF76F
:100E48008DFB0546354B1B6813F0007F06D0FFF776
:100E580085FB401B0228F5D9032051E0E369226A8B
:100E68001343626A43EA8213A26A5208013A43EAC8
:100E78000243E26A43EA0263284A5360284B01228C
:100E88001A66FFF76BFB0446244B1B6813F0007FC0
:100E980006D1FFF763FB001B0228F5D903202FE0DA
:100EA80000202DE000202BE0012B2BD01B4B5B6892
:100EB80003F48001E269914226D103F03F02216ADE
:100EC8008A4223D1616A47F6C0721A40B2EB811F89
:100ED8001ED103F44031A26A5208013AB1EB024F25
:100EE80018D103F07063E26AB3EB026F14D10020EB
:100EF80006E001207047012002E0012000E0002008
:100F080002B070BD0120FBE70120F9E70120F7E7F7
:100F18000120F5E70120F3E70120F1E7003802405E
:100F28000000474208B5314B9B6803F00C03042BC3
:100F380057D0082B57D12D4B5A6802F03F025B68F7
:100F480013F4800F2AD0294B5968C1F3881C4FEA43
:100F58004C11B1EB0C006EEB0E0E4FEA8E1343EA08
:100F680090638101091A63EB0E03DB0043EA5173B6
:100F7800C90011EB0C0C43F10003590200234FEA9E
:100F88004C2041EADC51FFF71BF9184B5B68C3F3AF
:100F9800014301335B00B0FBF3F025E0134B5968C4
:100FA800C1F3881C4FEA4C11B1EB0C006EEB0E0E2E
:100FB8004FEA8E1343EA90638101091A63EB0E032B
:100FC800DB0043EA5173C90011EB0C0C43F1000339
:100FD800990200234FEA8C2041EA9C51FFF7F0F870
:100FE800D3E7034800E0034808BD00BF00380240CB
:100FF80000127A000024F400002800F09B8070B5ED
:101008000D4604464F4B1B6803F007038B4208D27A
:10101800CBB24C4A1370136803F007038B4240F0BD
:101028008B80236813F0020F17D013F0040F04D03D
:10103800454A936843F4E0539360236813F0080F1C
:1010480004D0414A936843F4604393603E4A9368EE
:1010580023F0F003A1680B439360236813F0010F9A
:1010680032D06368012B21D09A1E012A25D9364A2D
:10107800126812F0020F61D033498A6822F0030225
:1010880013438B60FFF76AFA06462F4B9B6803F001
:101098000C036268B3EB820F16D0FFF75FFA801B70
:1010A80041F288339842F0D9032042E0264A126878
:1010B80012F4003FE0D101203BE0234A126812F00D
:1010C800007FD9D1012034E01E4B1B6803F00703D1
:1010D800AB4207D9EAB21B4B1A701B6803F007032F
:1010E800AB422DD1236813F0040F06D0164A93683B
:1010F80023F4E053E1680B439360236813F0080F6F
:1011080007D0114A936823F46043216943EAC10375
:101118009360FFF707FF0C4B9B68C3F303130B4A5D
:10112800D35CD8400A4B18600A4B1868FFF7CAF915
:10113800002070BD012070470120FAE70120F8E780
:101148000120F6E7003C024000380240542B00081A
:101158000800002004000020014B1868704700BFF9
:101168000800002008B5FFF7F7FF044B9B68C3F39E
:101178008223034AD35CD84008BD00BF0038024030
:10118800642B000808B5FFF7E7FF044B9B68C3F31F
:101198004233034AD35CD84008BD00BF0038024040
:1011A800642B000838B504460268136923F44053D9
:1011B800C1680B431361836802691343426913438F
:1011C800C2691A430168CB6823F4164323F00C0361
:1011D8001343CB600268536923F4407381690B435E
:1011E80053610368314A934206D002F58062934204
:1011F80002D0FFF7B7FF01E0FFF7C4FFE369B3F5DB
:10120800004F29D00021031849411B1841F1000162
:10121800C90041EA5371DB00181863684FEA83027A
:101228004FEA937341F10001FEF7CAFF204DA5FB79
:1012380000325109642303FB11031B013233A5FB60
:1012480003235B0903F0F00202EB011203F00F0322
:10125800216813448B6038BD0023021843EB030157
:10126800121841F10001C90041EA5271D200101868
:1012780041F10001626892185B41FEF7A1FF0C4D35
:10128800A5FB00325109642303FB1103DB00323351
:10129800A5FB03235B095A0002F4F87202EB011262
:1012A80003F00703216813448B60D4E70010014062
:1012B8001F85EB512DE9F84305460F46164699461A
:1012C800DDF820802C68246837EA04030CBF4FF04F
:1012D800010C4FF0000CB4452DD1B8F1FF3FF1D00F
:1012E800B8F1000F05D0FFF739F9A0EB0900404528
:1012F800E8D92A6802F10C0353E8003F23F4D073BD
:101308000C3242E800310029F3D12A6802F11403B3
:1013180053E8003F23F00103143242E8003100296A
:10132800F3D1202385F83D3085F83E30002385F839
:101338003C30032000E00020BDE8F88358B310B526
:10134800044690F83D300BB3242384F83D302268DE
:10135800D36823F40053D3602046FFF723FF2268A5
:10136800136923F4904313612268536923F02A0315
:1013780053612268D36843F40053D360002020648B
:10138800202384F83D3084F83E3010BD80F83C308E
:1013980000F076FAD8E7012070472DE9F04182B0D5
:1013A8001E4690F83D30DBB2202B54D104460D4642
:1013B8009046002953D0002A53D090F83C30012B96
:1013C80051D0012380F83C3000230364212380F8A6
:1013D8003D30FFF7C3F80746A4F82480A4F8268018
:1013E800A368B3F5805F05D04FF00008002384F8A8
:1013F8003C3012E0236913B14FF00008F6E7A84625
:101408000025F3E738F8023B2268C3F3080353606A
:10141800E28C92B2013A92B2E284E38C9BB273B14D
:1014280000963B46002280212046FFF743FFE0B9A3
:10143800002DE7D015F8012B23685A60E8E70096DD
:101448003B46002240212046FFF734FF78B920238D
:1014580084F83D3000E0022002B0BDE8F0810120B0
:10146800FAE70120F8E70220F6E70320F4E7032073
:10147800F2E72DE9F04182B01E4690F83E30DBB22B
:10148800202B5CD104460D46904600295BD0002AEB
:101498005BD090F83C30012B59D0012380F83C30C8
:1014A80000230364222280F83E200363FFF756F8E6
:1014B8000746A4F82C80A4F82E80A368B3F5805FB3
:1014C80005D04FF00008002384F83C3017E023696A
:1014D80013B14FF00008F6E7A8460025F3E72368A4
:1014E8005B68C3F3080328F8023B03E023685B68E2
:1014F8002B700135E28D92B2013A92B2E285E38D0A
:101508009BB2BBB100963B46002220212046FFF744
:10151800D1FEF0B9002DE2D0A368B3F5805FE5D025
:1015280013B92369002BE1D023685B6803F07F03BC
:101538002B70DEE7202384F83E30002000E00220F4
:1015480002B0BDE8F0810120FAE70120F8E70220A7
:10155800F6E70320F4E7000084B000220192104B64
:10156800196B41F004011963196B01F00401019131
:1015780001990292196B41F080011963196B01F00E
:1015880080010291029903921A6B42F001021A63D8
:101598001B6B03F001030393039B04B0704700BF68
:1015A8000038024072B6FEE708B50A480A4B0360E5
:1015B8004FF4E133436000238360C36003610C226E
:1015C80042618361C361FFF7B9FE00B908BDFFF747
:1015D800E9FF00BFB40800200010014000B585B045
:1015E800002300930193029303931448144A026062
:1015F8004FF48032426083600361037680F82030C4
:10160800C362104A8262C3600122C26180F830302E
:101618004261FFF743F868B905230093012301935A
:101628000023029369460548FFF764F820B905B01E
:101638005DF804FBFFF7B6FFFFF7B4FF6C08002066
:10164800002001400100000F00B595B030220021B4
:1016580008A800F0DDF9002303930493059306938B
:1016680007930193214A116C41F080511164126C67
:1016780002F080520192019A02931D4B1A6842F4BB
:1016880080421A601B6803F480430293029B012383
:1016980008934FF48033099302230E934FF480028A
:1016A8000F92082210924FF4A872119212930423F9
:1016B800139308A8FFF73AFA98B90F230393022364
:1016C8000493002305934FF4A05306934FF48053DB
:1016D8000793052103A8FFF78FFC20B915B05DF823
:1016E80004FBFFF75FFFFFF75DFF00BF0038024014
:1016F8000070004008B5FEF70BFF064800F00CF834
:10170800FFF7A2FFFFF728FFFFF74EFFFFF766FF7F
:10171800FEE700BFB408002008B5054B1860054B6C
:101728001868002302221946806800F0C3F908BD32
:10173800F80800200C00002010B5013801280AD84C
:1017480014464FF0FF3392B207480068FFF725FEB2
:1017580040B9204610BD00F031F9092303604FF06D
:10176800FF30F7E70520F5E7F8080020022801D840
:101778000020704708B500F021F9092303604FF0F5
:10178800FF3008BD08B500F019F9092303604FF0D0
:10179800FF3008BD08B548B94FF0FF3301220848AB
:1017A8000068FFF766FE40B9012008BD00F006F9A1
:1017B800092303604FF0FF30F7E70520F5E700BF86
:1017C800F808002008B5022804D84FF400534B60ED
:1017D800002008BD00F0F2F809230360F8E70000D4
:1017E80082B0002100910B4B5A6C42F480425A643B
:1017F8005A6C02F480420092009A01911A6C42F0ED
:1018080080521A641B6C03F080530193019B02B051
:10181800704700BF0038024000B589B00023039329
:101828000493059306930793026803F1804303F535
:1018380090339A4202D009B05DF804FB002101916F
:1018480003F58C335A6C42F480725A645A6C02F471
:1018580080720192019A02911A6B42F001021A6396
:101868001B6B03F001030293029B202303930323C2
:10187800049303A90148FFF767F8DCE7000002407A
:1018880000B589B000230393049305930693079347
:10189800026803F1804303F588339A4202D009B005
:1018A8005DF804FB0021019103F594335A6C42F072
:1018B80010025A645A6C02F010020192019A0291C5
:1018C8001A6B42F001021A631B6B03F001030293C7
:1018D800029B4FF4C06303930223049303230693EC
:1018E8000723079303A90248FFF72EF8D7E700BF9D
:1018F80000000240FEE7FEE7FEE7FEE7FEE770476E
:101908007047704708B5FEF71DFE08BD10B50346C1
:101918000C4A0D490D48006840B10C480068034462
:10192800521A934206D8094A136010BD0748084C5A
:101938000460F2E700F042F80C2303604FF0FF3038
:10194800F3E700BF0000022000040000FC080020AC
:1019580048090020034AD2F8883043F47003C2F8DB
:101968008830704700ED00E0DFF834D00D480E49AC
:101978000E4A002302E0D458C4500433C4188C42E1
:10198800F9D30B4A0B4C002301E013600432A24246
:10199800FBD3FFF7DFFF00F017F8FFF7ABFE704748
:1019A80000000220000000204C080020842B0008C2
:1019B8004C08002048090020FEE70000014B186889
:1019C800704700BF0C00002070B50D4E0D4D761B02
:1019D800B61006D0002455F8043B01349847A642B7
:1019E800F9D1094E094D761B01F0A4F8B61006D0BE
:1019F800002455F8043B01349847A642F9D170BD3C
:101A0800782B0008782B0008802B0008782B00081A
:101A1800830730B548D0541E002A3FD0CAB20346C7
:101A280001E0013C3AD303F8012B9D07F9D1032CBF
:101A38002DD9CDB245EA05250F2C45EA054536D9FD
:101A4800A4F1100222F00F0C03F1200EE6444FEA35
:101A5800121C03F1100242E9045542E90255103202
:101A68007245F8D10CF1010214F00C0F03EB0212CD
:101A780004F00F0C13D0ACF1040323F00303043378
:101A8800134442F8045B9342FBD10CF003042CB1DD
:101A9800CAB21C4403F8012B9C42FBD130BD6446FA
:101AA8001346002CF4D1F9E703461446BFE71A465B
:101AB800A446E0E72DE9F043694CD4F8008083B0F0
:101AC80004460E4617461D46B8F1000F03D0D8F855
:101AD8003830002B77D0022F05D0012F00F2AC80D0
:101AE800002DC0F2A980636EDA0752D52146404620
:101AF80000F060F9216B41B104F14003994202D032
:101B0800404600F083FA00232363B4F90CC0002395
:101B18001CF0800FA361636064D12CF44A6C2CF034
:101B2800030C022FA4F80CC06AD001AB6A46214608
:101B3800404600F09DFBA3891843A081002D2FD0BB
:101B4800002E2ED0D8F83830002B38D0009B2660D5
:101B5800AB42B4F90C301CBF43F40063A381012FDE
:101B680004BF43F00103A3819AB213F00803C4E948
:101B780004652CD0D1075DD56D42A561656E002343
:101B880015F00105A36027D00025284603B0BDE85D
:101B9800F083A3899B05A9D4A06D00F065FBA5E798
:101BA800009D284600F094FB0646002847D0A389EC
:101BB80043F08003A381D8F83830002BC6D14046C3
:101BC80000F02CF9C2E7404600F028F983E7A3604B
:101BD800656E15F00105D7D1930524D5284603B0C5
:101BE800BDE8F0832169404600F010FAB4F90CC052
:101BF8002CF44A6C2CF0030C022FA4F80CC094D1DE
:101C08000025002204F14303A2600122C4E9043242
:101C18002360636E4CF0020CD807A4F80CC0DDD426
:101C28001CF4007FDAD1A06D00F020FB284603B039
:101C3800BDE8F083A560CBE74FF0FF35CEE7DDF8D0
:101C48000090A94504D0484600F042FB064620B95A
:101C5800B4F90CC04FF0FF35D3E74D46A7E700BFF6
:101C68000C000020024B13B1024800F005B8704781
:101C780000000000491F0008002301461A461846C4
:101C880000F058BEB1F90C202DE9F0410C461107BF
:101C9800804647D4636842F40062002BA2815EDD6F
:101CA800A56A002D58D00023D8F80060C8F8003085
:101CB80093B212F4805256D10123E1694046A847F5
:101CC800431C67D0A389A56A5F0705D56368C01A56
:101CD800236B0BB1E36BC01AE1690246002340464F
:101CE800A847411C41D1D8F80030002B3DD01D2B0E
:101CF80001D0162B56D1A3892269226023F40063F0
:101D080000216160A381216BC8F8006021B304F150
:101D18004003994202D0404600F078F90020206341
:101D2800BDE8F0812669BEB193B2256826609A079E
:101D38000CBF63690023AD1BA3600BE02B46324642
:101D4800E169676A4046B847B0F1000CA5EB0C059D
:101D5800664417DD002DF1DC0020BDE8F081E36B5F
:101D6800002B9DDCF8E7206DAEE7B4F90C30226952
:101D7800226023F40063A3810022DB046260C2D5E1
:101D88002065C0E7A38943F040034FF0FF30A381EB
:101D9800BDE8F081D8F80030002B93D01D2B06D079
:101DA800162B04D0A38943F04003A381D5E7C8F8D4
:101DB8000060D1E738B50C46054608B1836BA3B17E
:101DC800B4F90C00B8B1636EDB0701D4810515D5F1
:101DD80028462146FFF756FF636EDA07054602D408
:101DE800A3899B050ED5284638BD00F017F8B4F92D
:101DF8000C000028E7D10546284638BDA06D00F044
:101E080033FAE5E7A06D00F031FA284638BD00BF87
:101E1800014900F001BA00BFED2900082DE9F0479B
:101E28008246394800F020FADAF83840002C66D1AA
:101E3800DAF80450354ACAF83C200323CAE9B84303
:101E4800DFF8DC90DFF8DC80314F324E04230AF5EE
:101E58003B72CAF8E8222146C5E90243C5E90044B5
:101E6800C5E904446C660822AC6105F15C00FFF723
:101E7800CFFDC5E90759C5E90987EE6205F15800A4
:101E880000F0EEF9DAF80850234BEB602146C5E97B
:101E98000044C5E904446C66AC60AC61082205F1F5
:101EA8005C00FFF7B5FDC5E90759C5E90987EE628A
:101EB80005F1580000F0D4F9DAF80C50174BEB6034
:101EC8002146C5E90044C5E904446C66AC60AC61D0
:101ED800082205F15C00FFF79BFD05F15800C5E9F4
:101EE8000759C5E90A76C5F8248000F0B9F9012335
:101EF800CAF838300448BDE8F04700F0B7B9BDE883
:101F0800F047014800F0B2B90C090020191E00087A
:101F1800E928000809290008090001001200020048
:101F280085280008A9280008014800F09DB900BFCD
:101F380008090020014800F099B900BF08090020ED
:101F480038B5084B084D5B1B9C1007D0043B1D445B
:101F5800013C55F804399847002CF9D1BDE83840C0
:101F680000F0EEBD842B0008802B0008F8B5244F44
:101F78000C46064600F064FCBA685568C4F57E63F2
:101F88000F3325F003052B4423F47F6323F00F035D
:101F9800A3F58054B4F5805F07DB0021304600F0DC
:101FA8005BFCBB682B44984204D0304600F04EFCE2
:101FB8000020F8BD6142304600F04EFC01300DD0E3
:101FC800104ABB682D1B45F001055D60136830465B
:101FD8001B1B136000F03AFC0120F8BD00213046BD
:101FE80000F03AFCBA68831A0F2BDEDD43F00103D8
:101FF8005360054B03491B68C01A0860D5E700BF4A
:102008003C0400201009002044080020002961D069
:10201800F8B50C46064600F013FC54F8042C7B4F28
:10202800A4F1080522F0010105EB010CB868DCF801
:102038000430604523F0030300F08B80D207CCF80E
:10204800043032D454F8082CAD1A1144AA6807F1A8
:10205800080082426AD00CEB0304D4F804E0EC6870
:10206800D4601EF0010FA26000F0978041F00103D8
:102078006B60CCF80010B1F5007F35D27A68CB08D8
:1020880048090121013381401143796007EBC302FC
:1020980057F83310083AC5E9021247F83350CD60B3
:1020A8003046BDE8F84000F0D1BB0CEB03025268A3
:1020B800D00710D4194407F10800DCF8083083422F
:1020C80073D0DCF80C20DA60936041F001036B6098
:1020D8006950D0E7704741F00103B1F5007F44F83B
:1020E800043CCCF80010C9D3B1F5206F4FEA512356
:1020F80048D28B0903F1390003F13802C300F818FC
:10210800FB580838984259D05A6822F003028A428C
:1021180002D99B689842F7D1D868C5E90230856032
:10212800DD603046BDE8F84000F090BB0CEB0302E0
:102138005268D20763D40B44DCE90212CA6091608A
:1021480043F001026A603046EB50BDE8F84000F009
:102158007DBB0B44D10707D454F8082CAD1A13449F
:10216800D5E90212CA60916043F001026A60284A08
:10217800BD6012689A4293D8264B30461968FFF71B
:10218800F5FE8DE7142B0AD9542B1FD80B0B03F13E
:102198006F0003F16E02C300B1E719448DE703F144
:1021A8005C0003F15B02C300A9E741F00103C7E942
:1021B8000455C5E902006B60695071E779689210AF
:1021C800012404FA02F20A437A60A6E7B3F5AA7F6B
:1021D80006D8CB0B03F1780003F17702C3008EE732
:1021E80040F25452934206D88B0C03F17D0003F160
:1021F8007C02C30083E74FF47E737E227FE741F0C1
:1022080001036B60CCF800104AE700BF3C040020D3
:1022180048080020400900202DE9F8430746884671
:1022280000F538764FF00009D6E90154013D11D484
:10223800A389012B05F1FF3508D9B4F90E30013314
:10224800214603D03846C04749EA00096B1C04F10F
:102258006804EDD13668002EE6D14846BDE8F8831B
:10226800704700BF704700BF704700BF704700BF8E
:1022780070B50C46B1F90E10002996B015461E46E9
:1022880014DB6A4600F014FC00280FDB019A02F404
:102298007042A2F50052B2FA82F24FF480635209FA
:1022A8004FF4006032602B6016B070BDB4F90C10AA
:1022B800002311F08000336004D0402218462A60C1
:1022C80016B070BD4FF480632B6016B070BD00BFB0
:1022D800024B0146186800F003B800BF0C0000204C
:1022E8002DE9F04F01F10B06162E83B0044624D8D1
:1022F800102900F2BA8000F0A3FA10261822022052
:10230800B54F3A44A2F1080153688B4200F0BA80F5
:102318005A68D96822F003021A449D68E9608D6002
:10232800516841F001012046516003F1080500F0B1
:102338008DFA284603B0BDE8F08F36F0070600F1A5
:102348009480B14200F2918000F07AFAB6F5FC7FF1
:10235800C0F09A81730A00F08F80042B00F26F811D
:10236800B30903F1390003F1380CC3009A4F3B4419
:10237800A3F108055B689D4206D10CE0002980F2B4
:102388002781DB689D4206D05A6822F00302911B20
:102398000F29F3DD60463D69DFF850C265457CD002
:1023A8006A6822F00302931B0F2B00F37B81002B3A
:1023B800C7E904CC80F26C81B2F5007F80F01A8105
:1023C800D308796801334FEA521E012202FA0EF24D
:1023D8000A4357F833E0C5F808E007EBC3010839AA
:1023E800E9607A6047F83350CEF80C508310012129
:1023F8009940914257D8114206D120F00300490074
:10240800114200F10400FAD007EBC0094D46864698
:10241800D5F80C80454508D11DE1002B80F22481B8
:10242800D8F80C80454500F01681D8F8042022F031
:102438000302931B0F2BF0DD2046D8E9025408EB6A
:10244800060146F00106C8F80460EC60A56043F098
:102458000104C7E90411C1E902CC4C6048F8023014
:1024680000F0F4F908F1080502E00C2323600025C8
:10247800284603B0BDE8F08F4FF4007340204FF0BA
:102488003F0C73E7D3689A4208BF02307FF440AF2D
:102498003D69DFF858C1654582D17A68831001210A
:1024A80099409142A7D9BD686B6823F003094E454E
:1024B80003D8A9EB06030F2B7ADCDFF834B1474BBE
:1024C800DBF800201B680132334405EB090A00F0F1
:1024D800338103F580530F3323F47F6828F00F0806
:1024E8004146204600F0B8F9411C024600F0F3804E
:1024F800824500F2EE803A4B19684144196008465B
:1025080000F04E81DBF80010019301311BBFA2EBF4
:102518000A0A5044CBF80020186012F0070B00F0AC
:102528001781CBF108010A44CBF58051904408315A
:10253800A1EB0801C1F30B0A51462046009200F0B6
:102548008BF9421CDDE9002300F04F81801A00EB73
:102558000A081968BA6048F001005144BD42506049
:10256800196000F02981B9F10F0F40F227816868DE
:10257800A9F10C0C2CF0070C00F0010040EA0C004B
:1025880068604FF0050E05EB0C00BCF10F0FC0E9B9
:1025980001EE00F2328150681546124B1A688A42E1
:1025A80038BF1960104B1A688A4238BF196094E026
:1025B800AA1943F0010346F001066E602046BA608E
:1025C800536000F043F90835284603B0BDE8F08FA2
:1025D800D9681A44A1E600BF3C0400204009002045
:1025E80010090020380900203C090020440400207C
:1025F80044080020B2F5206F4FEA522363D3142B0E
:1026080000F2B78003F15C01C9005B3307EB010EF0
:102618007958AEF1080E8E4500F091804B6823F092
:102628000303934202D989688E45F7D1D1F80CE0AB
:102638007A68C5E9021ECEF80850CD60D6E6142B9C
:1026480059D9542B00F29D80330B03F16F0003F12D
:102658006E0CC3008AE60EF1010E1EF0030F05F1A1
:1026680008057FF4D5AE51E0424445465368D8F892
:102678000C1043F00103536055F8083F2046D96019
:102688008B6000F0E3F8F3E6F00806F1080237E69D
:102698002A442046536843F001035360083500F08C
:1026A800D5F8E5E6A919204646F0010643F00104ED
:1026B8006E60C7E90411C1E902CC4C60AB5000F070
:1026C800C5F80835D4E6930903F13901C900383350
:1026D8009CE7BD425FD0BD68686820F003084645A6
:1026E800A8EB060302D80F2B3FF762AF204600F095
:1026F800ADF80025BCE603F15C0003F15B0CC300F8
:1027080034E659F808394B4540F0968010F0030F2D
:1027180000F1FF30F5D17B6823EA01037B604900B3
:1027280099423FF6C0AE19B9BDE649000EF1040E54
:102738001942FAD0704667E603F11008D0E69A10FD
:102748004FF001087B6808FA02F21A437A6070E7D2
:1027580002EB08014942C1F30B0A51462046009298
:1027680000F07AF8431CDDE900237FF4EFAEDA4687
:10277800EFE6542B25D8130B03F16F01C9006E3314
:1027880044E7B3F5AA7F25D8F30B03F1780003F1EA
:10279800770CC300EAE5294B186840441860B1E695
:1027A800CAF30B0CBCF1000F7FF4ACAEBD68C84493
:1027B80048F001006860F0E61546EEE60123536034
:1027C80094E7B3F5AA7F23D8D30B03F17801C900A6
:1027D80077331BE740F25452934223D8B30C03F1EA
:1027E8007D0003F17C0CC300C0E5ABF1080BD844B5
:1027F800A8EB02084FF0000AABE605F108012046F5
:102808000093FFF703FCBD68009B68681968C4E67D
:1028180040F254518B420BD8930C03F17D01C9004F
:102828007C33F3E64FF47E737F204FF07E0C9DE5FA
:102838004FF47E717E23E9E67B6870E7100900207B
:102848000148FFF711BD00BF040900200148FFF748
:102858000DBD00BF0409002038B5074D002204460D
:1028680008462A60FFF752F8431C00D038BD2B6891
:10287800002BFBD0236038BD4409002010B50C465E
:10288800B1F90E1000F040F9002803DB236D034472
:10289800236510BDA38923F48053A38110BD00BF15
:1028A8002DE9F0410C46B1F90C101F46CB05054641
:1028B80016460BD421F48051A1813B46B4F90E1081
:1028C80032462846BDE8F04100F01EB8B4F90E10B3
:1028D8000223002200F002F9B4F90C10EAE700BF65
:1028E80010B50C46B1F90E1000F0F8F8A389421C97
:1028F8000EBF23F4805343F480532065A38110BD99
:10290800B1F90E1000F05CB838B50C46084D844695
:10291800114620461A4600232B606446FEF70CFF3A
:10292800431C00D038BD2B68002BFBD0236038BD7A
:10293800440900202DE9F047DFF880A00646DAF8C0
:10294800000098460F469146FFF78EFC1A4B1B680D
:10295800D3F8484124B365681F2D26DC5EB96B1C8B
:102968000235DAF80000636044F82570FFF77EFC52
:102978000020BDE8F08704EB85010123C1F88890A9
:10298800D4F88821AB401A43022EC4F88821C1F834
:102998000881E4D1D4F88C211343C4F88C31DEE7E4
:1029A80003F5A674C3F84841D5E7DAF80000FFF745
:1029B8005DFC4FF0FF30DCE76C2B0008380400208A
:1029C80038B5074D0022044608462A60FEF7CEFEB9
:1029D800431C00D038BD2B68002BFBD0236038BDCA
:1029E8004409002070B500294BD006460C4610B1AA
:1029F800836B002B48D0636ED80734D5B4F90C30FC
:102A0800002B3ED021463046FFF73CF9E36A0546E5
:102A180033B1E169304698470028B8BF4FF0FF3519
:102A2800A3891A063BD4216B41B104F140039942B2
:102A380002D03046FFF7EAFA00232363616C21B124
:102A48003046FFF7E3FA00236364FFF76DFA636E1D
:102A58000022DB07A28127D5A06DFFF703FCFFF753
:102A680069FA284670BDA3899905CBD4A06DFFF7F4
:102A7800FBFBB4F90C30002BC4D1656E15F00105D1
:102A880008D00025284670BDFFF7C8F9636ED8073F
:102A9800B4D4E8E7A06DFFF7E9FB284670BD2169CB
:102AA8003046FFF7B3FABEE7A06DFFF7DFFBD3E7C9
:102AB80070B50C46084D03460026204611461C46B4
:102AC8002E60FEF77FFE431C00D070BD2B68002BE4
:102AD800FBD0236070BD00BF4409002038B50C4608
:102AE800084D8446114620461A4600232B6064464A
:102AF800FEF748FE431C00D038BD2B68002BFBD0E6
:102B0800236038BD4409002038B50C46084D84467A
:102B1800114620461A4600232B606446FEF73AFE0B
:102B2800431C00D038BD2B68002BFBD0236038BD78
:102B380044090020F8B500BFF8BC08BC9E467047A1
:0C2B4800F8B500BFF8BC08BC9E46704702
:102B54000000000000000000010203040607080949
:0C2B64000000000001020304100000202B
:082B700088D6FF7F0100000080
:082B78006D1C0008AD0100080E
:042B800089010008BF
:102B840001000000100000000024F40010000020E8
:102B940000000000FC02002064030020CC0300209D
:102BA4000000000000000000000000000000000021
:102BB4000000000000000000000000000000000011
:102BC4000000000000000000000000000000000001
:102BD40000000000000000000000000000000000F1
:102BE40000000000000000000000000000000000E1
:102BF40000000000000000000000000000000000D1
:102C040000000000000000000000000000000000C0
:102C140000000000000000000000000000000000B0
:102C240000000000000000000000000000000000A0
:102C3400000000000000000001000000000000008F
:102C44000E33CDAB34126DE6ECDE05000B00000054
:102C54000000000000000000000000000000000070
:102C64000000000000000000000000000000000060
:102C74000000000000000000000000000000000050
:102C84000000000000000000000000000000000040
:102FB40000000000000000000009002000000000E4
:102FC400000000003C0400203C04002044040020D5
:102FD400440400204C0400204C040020540400202D
:102FE400540400205C0400205C04002064040020DD
:102FF400640400206C0400206C040020740400208D
:10300400740400207C0400207C040020840400203C
:10301400840400208C0400208C04002094040020EC
:10302400940400209C0400209C040020A40400209C
:10303400A4040020AC040020AC040020B40400204C
:10304400B4040020BC040020BC040020C4040020FC
:10305400C4040020CC040020CC040020D4040020AC
:10306400D4040020DC040020DC040020E40400205C
:10307400E4040020EC040020EC040020F40400200C
:10308400F4040020FC040020FC04002004050020BB
:10309400040500200C0500200C0500201405002068
:1030A400140500201C0500201C0500202405002018
:1030B400240500202C0500202C05002034050020C8
:1030C400340500203C0500203C0500204405002078
:1030D400440500204C0500204C0500205405002028
:1030E400540500205C0500205C05002064050020D8
:1030F400640500206C0500206C0500207405002088
:10310400740500207C0500207C0500208405002037
:10311400840500208C0500208C05002094050020E7
:10312400940500209C0500209C050020A405002097
:10313400A4050020AC050020AC050020B405002047
:10314400B4050020BC050020BC050020C4050020F7
:10315400C4050020CC050020CC050020D4050020A7
:10316400D4050020DC050020DC050020E405002057
:10317400E4050020EC050020EC050020F405002007
:10318400F4050020FC050020FC05002004060020B6
:10319400040600200C0600200C0600201406002063
:1031A400140600201C0600201C0600202406002013
:1031B400240600202C0600202C06002034060020C3
:1031C400340600203C0600203C0600204406002073
:1031D400440600204C0600204C0600205406002023
:1031E400540600205C0600205C06002064060020D3
:1031F400640600206C0600206C0600207406002083
:10320400740600207C0600207C0600208406002032
:10321400840600208C0600208C06002094060020E2
:10322400940600209C0600209C060020A406002092
:10323400A4060020AC060020AC060020B406002042
:10324400B4060020BC060020BC060020C4060020F2
:10325400C4060020CC060020CC060020D4060020A2
:10326400D4060020DC060020DC060020E406002052
:10327400E4060020EC060020EC060020F406002002
:10328400F4060020FC060020FC06002004070020B1
:10329400040700200C0700200C070020140700205E
:1032A400140700201C0700201C070020240700200E
:1032B400240700202C0700202C07002034070020BE
:1032C400340700203C0700203C070020440700206E
:1032D400440700204C0700204C070020540700201E
:1032E400540700205C0700205C07002064070020CE
:1032F400640700206C0700206C070020740700207E
:10330400740700207C0700207C070020840700202D
:10331400840700208C0700208C07002094070020DD
:10332400940700209C0700209C070020A40700208D
:10333400A4070020AC070020AC070020B40700203D
:10334400B4070020BC070020BC070020C4070020ED
:10335400C4070020CC070020CC070020D40700209D
:10336400D4070020DC070020DC070020E40700204D
:10337400E4070020EC070020EC070020F4070020FD
:10338400F4070020FC070020FC07002004080020AC
:10339400040800200C0800200C0800201408002059
:1033A400140800201C0800201C0800202408002009
:1033B400240800202C0800202C08002034080020B9
:0C33C40034080020FFFFFFFF00000200A3
:040000050800197165
:00000001FF
