:020000040800F2
:1000000000000220A50300089103000893030008E4
:1000100095030008970300089903000800000000FA
:100020000000000000000000000000009B0300082A
:100030009D030008000000009F030008A1030008C2
:10004000F5030008F5030008F5030008F5030008B0
:10005000F5030008F5030008F5030008F5030008A0
:10006000F5030008F5030008F5030008F503000890
:10007000F5030008F5030008F5030008F503000880
:10008000F5030008F5030008F5030008F503000870
:10009000F5030008F5030008F5030008F503000860
:1000A000F5030008F5030008F5030008F503000850
:1000B000F5030008F5030008F5030008F503000840
:1000C000F5030008F5030008F5030008F503000830
:1000D000F5030008F5030008F5030008F503000820
:1000E000F5030008F5030008F5030008F503000810
:1000F000F5030008F5030008F5030008F503000800
:10010000F5030008F5030008F5030008F5030008EF
:10011000F5030008F5030008F5030008F5030008DF
:10012000F5030008F5030008F5030008F5030008CF
:10013000F5030008F5030008F5030008F5030008BF
:10014000F5030008F5030008F5030008F5030008AF
:10015000F5030008F5030008F5030008F50300089F
:10016000F5030008F5030008F5030008F50300088F
:10017000F5030008F5030008F5030008000000007F
:08018000F5030008F503000877
:1001880010B5054C237833B9044B13B10448AFF3C9
:1001980000800123237010BD3404002000000000FB
:1001A8002005000808B5034B1BB103490348AFF30A
:1001B800008008BD00000000380400202005000869
:1001C800064BA3FB00239B09013B4FF0E022536140
:1001D8000023936105231361704700BFD34D62105C
:1001E800014B1860704700BF0000002084B00F4B1F
:1001F8001A6B42F004021A631A6B02F004020392AB
:10020800039A1A6B42F080021A631A6B02F080029A
:100218000292029A1A6B42F001021A631B6B03F0F6
:1002280001030193019B04B0704700BF00380240EE
:1002380010B52D4A136823F0070343F00503136034
:10024800294B1B6803F00703052BF9D1274A1368CC
:1002580043F480431360254B5B6813F4804FFAD056
:10026800234A136843F480331360214B1B6813F44B
:10027800003FFAD01E4B5A681E4911401E4A0A43D5
:100288005A605A6822F440325A601A6842F0807202
:100298001A60174B1B6813F0007FFAD0144B9A684A
:1002A80022F0F0029A609A6822F4E05242F4A052D6
:1002B8009A609A6822F4604242F400429A609A680E
:1002C80022F0030242F002029A60094B9B6803F095
:1002D8000C03082BF9D1094C2046FFF771FF204683
:1002E800FFF77EFF10BD00BF003C024000700040D9
:1002F800003802400080BFFF08544000007A030A1B
:1003080000B583B01D4B5A6C42F480425A645A6C53
:1003180002F480420192019A1A6C42F080521A64E7
:100328001B6C03F080530093009B154BD96821F494
:10033800E0610904090C134A0A43DA60DA68C2F377
:100348000222C2F10703042B28BF04231946131DF8
:10035800062B11D9033A4FF0FF338B40DB4303F0F0
:100368000F0393401B01DBB2054A82F82330FFF7E5
:100378005FFFFFF73BFFFEE70022ECE70038024093
:1003880000ED00E00003FA05FEE7FEE7FEE7FEE702
:10039800FEE770477047704770477047DFF834D002
:1003A8000D480E490E4A002302E0D458C4500433C5
:1003B800C4188C42F9D30B4A0B4C002301E013609C
:1003C8000432A242FBD3FFF7E8FF00F011F8FFF771
:1003D80097FF70470000022000000020340400202E
:1003E800480500083404002054040020FEE70000FB
:1003F80070B50D4E0D4D761BB61006D0002455F87D
:10040800043B01349847A642F9D1094E094D761BA1
:1004180000F082F8B61006D0002455F8043B0134E9
:100428009847A642F9D170BD3C0500083C05000874
:10043800440500083C050008024B13B1024800F0CF
:1004480005B8704700000000610400080023014659
:100458001A46184600F01AB838B5084B084D5B1B09
:100468009C1007D0043B1D44013C55F804399847BB
:10047800002CF9D1BDE8384000F054B84805000810
:1004880044050008704700BF704700BF2DE9F047DA
:10049800DFF87CA00646DAF8000098460F46914639
:1004A800FFF7F0FF1B4B1B68D3F8484124B365687E
:1004B8001F2D26DC5EB96B1C0235DAF8000063607C
:1004C80044F82570FFF7E0FF0020BDE8F08704EB53
:1004D80085010123C1F88890D4F88821AB401A43DC
:1004E800022EC4F88821C1F80881E4D1D4F88C21FF
:1004F8001343C4F88C31DEE703F5A674C3F848410A
:10050800D5E7DAF80000FFF7BFFF4FF0FF30DCE770
:100518003004002038050008F8B500BFF8BC08BC56
:100528009E467047F8B500BFF8BC08BC9E467047A9
:040538000800002097
:08053C0041040008AD010008B4
:040544008901000821
:100548000024F4000000000000000000F402002075
:100558005C030020C403002000000000000000002D
:100568000000000000000000000000000000000083
:100578000000000000000000000000000000000073
:100588000000000000000000000000000000000063
:100598000000000000000000000000000000000053
:1005A8000000000000000000000000000000000043
:1005B8000000000000000000000000000000000033
:1005C8000000000000000000000000000000000023
:1005D8000000000000000000000000000000000013
:1005E8000000000000000000000000000000000003
:1005F80001000000000000000E33CDAB34126DE6A0
:10060800ECDE05000B000000000000000000000008
:1006180000000000000000000000000000000000D2
:1006280000000000000000000000000000000000C2
:1006380000000000000000000000000000000000B2
:1006480000000000000000000000000000000000A2
:040978005004002007
:04000005080003A547
:00000001FF
